{
  "contractName": "Eirbmon",
  "abi": [
    {
      "constant": true,
      "inputs": [
        {
          "name": "",
          "type": "uint256"
        }
      ],
      "name": "pokemons",
      "outputs": [
        {
          "name": "id",
          "type": "uint256"
        },
        {
          "name": "name",
          "type": "string"
        },
        {
          "name": "level",
          "type": "int256"
        }
      ],
      "payable": false,
      "stateMutability": "view",
      "type": "function"
    },
    {
      "constant": true,
      "inputs": [],
      "name": "pokemonsCount",
      "outputs": [
        {
          "name": "",
          "type": "uint256"
        }
      ],
      "payable": false,
      "stateMutability": "view",
      "type": "function"
    },
    {
      "inputs": [],
      "payable": false,
      "stateMutability": "nonpayable",
      "type": "constructor"
    },
    {
      "constant": true,
      "inputs": [
        {
          "name": "i",
          "type": "uint256"
        }
      ],
      "name": "get",
      "outputs": [
        {
          "name": "",
          "type": "string"
        }
      ],
      "payable": false,
      "stateMutability": "view",
      "type": "function"
    }
  ],
  "bytecode": "0x60806040526000805534801561001457600080fd5b506100596040518060400160405280600481526020017f50696b61000000000000000000000000000000000000000000000000000000008152506100a260201b60201c565b61009d6040518060400160405280600981526020017f576172746f72746c6500000000000000000000000000000000000000000000008152506100a260201b60201c565b6101c1565b6000808154809291906001019190505550604051806060016040528060005481526020018281526020016000815250600160008054815260200190815260200160002060008201518160000155602082015181600101908051906020019061010b92919061011c565b506040820151816002015590505050565b828054600181600116156101000203166002900490600052602060002090601f016020900481019282601f1061015d57805160ff191683800117855561018b565b8280016001018555821561018b579182015b8281111561018a57825182559160200191906001019061016f565b5b509050610198919061019c565b5090565b6101be91905b808211156101ba5760008160009055506001016101a2565b5090565b90565b61036c806101d06000396000f3fe608060405234801561001057600080fd5b50600436106100415760003560e01c806385831079146100465780639204119c146100fb5780639507d39a14610119575b600080fd5b6100726004803603602081101561005c57600080fd5b81019080803590602001909291905050506101c0565b6040518084815260200180602001838152602001828103825284818151815260200191508051906020019080838360005b838110156100be5780820151818401526020810190506100a3565b50505050905090810190601f1680156100eb5780820380516001836020036101000a031916815260200191505b5094505050505060405180910390f35b610103610282565b6040518082815260200191505060405180910390f35b6101456004803603602081101561012f57600080fd5b8101908080359060200190929190505050610288565b6040518080602001828103825283818151815260200191508051906020019080838360005b8381101561018557808201518184015260208101905061016a565b50505050905090810190601f1680156101b25780820380516001836020036101000a031916815260200191505b509250505060405180910390f35b6001602052806000526040600020600091509050806000015490806001018054600181600116156101000203166002900480601f0160208091040260200160405190810160405280929190818152602001828054600181600116156101000203166002900480156102725780601f1061024757610100808354040283529160200191610272565b820191906000526020600020905b81548152906001019060200180831161025557829003601f168201915b5050505050908060020154905083565b60005481565b6060600160008381526020019081526020016000206001018054600181600116156101000203166002900480601f0160208091040260200160405190810160405280929190818152602001828054600181600116156101000203166002900480156103345780601f1061030957610100808354040283529160200191610334565b820191906000526020600020905b81548152906001019060200180831161031757829003601f168201915b5050505050905091905056fea165627a7a7230582070c494a6b21de9ef922988f7af8e8eaf34b7c0c7f886bce666343612030b20260029",
  "source": "pragma solidity ^0.5.8;\r\n\r\ncontract Eirbmon{\r\n\r\n    struct Pokemon {\r\n        uint id;\r\n        string name;\r\n        int level;\r\n    }\r\n    uint public pokemonsCount = 0;\r\n    mapping(uint => Pokemon) public pokemons;\r\n\r\n    constructor() public{\r\n        addPokemon(\"Pika\");\r\n        addPokemon(\"Wartortle\");\r\n    }\r\n    function  addPokemon(string memory _name) private {\r\n        pokemonsCount++;\r\n        pokemons[pokemonsCount] = Pokemon(pokemonsCount,_name,0);\r\n    }\r\n\r\n    function get(uint i) public view returns (string memory)  {\r\n        return pokemons[i].name;\r\n    }\r\n}\r\n",
  "sourcePath": "C:/Users/damie/Documents/EirbMon/contracts/Eirbmon.sol",
  "compiler": {
    "name": "solc",
    "version": "0.5.8+commit.23d335f2.Emscripten.clang"
  },
  "schemaVersion": "3.0.16",
  "updatedAt": "2019-10-24T07:42:29.992Z",
  "devdoc": {
    "methods": {}
  },
  "userdoc": {
    "methods": {}
  }
}